:02000002F0000C
:10400000803F002011610F00B9D80F00FD600F0044
:10401000FD600F00FD600F00FD600F00000000005C
:1040200000000000000000000000000061620F00BE
:10403000FD600F00000000002D620F00FD600F000A
:1040400025640F0025640F0025640F0025640F0010
:1040500025640F0025640F0025640F0025640F0000
:1040600025640F0025640F0025640F0025640F00F0
:1040700025640F0025640F0025640F0025640F00E0
:1040800025640F0025640F0025640F0025640F00D0
:1040900025640F0025640F0025640F0025640F00C0
:1040A00025640F0025640F0025640F0025640F00B0
:1040B00025640F0025640F0025640F0025640F00A0
:1040C00025640F0025640F0025640F0025640F0090
:1040D00025640F0025640F0025640F0025640F0080
:1040E00025640F0025640F0025640F0025640F0070
:1040F00025640F0025640F0025640F0025640F0060
:1041000053B94AB9002908BF00281CBF4FF0FF313E
:104110004FF0FF3000F00CB8ADF1080C6DE904CEA3
:1041200000F010F8DDF804E0DDE9022304B0704788
:10413000704700BF034613F8012B002AFBD1181A61
:10414000013870472DE9F04786468C460846089EA0
:10415000154674461946002B40F0C2808542B2FADB
:1041600082F245D94AB1C2F1200300FA02FC2EFACC
:1041700003F3954043EA0C0C94404FEA154EA8B265
:10418000BCFBFEF8230C0EFB18CC08FB00F943EA3D
:104190000C43994528D9EB1808F1FF3704D299450B
:1041A00002D9A8F102072B44A3EB0903A4B2B3FB85
:1041B000FEFC0EFB1C330CFB00F044EA0344A0425F
:1041C00014D92C190CF1FF3304D2A04202D9ACF15E
:1041D00002032C44241A43EA07401EB1D4400023B2
:1041E00034607360BDE8F0874746DDE76346F1E77A
:1041F00092BB431B01214FEA154EAFB2B3FBFEFC4D
:10420000200C0EFB1C330CFB07F840EA03439845D7
:1042100062D9EB180CF1FF3004D2984502D9ACF109
:1042200002002B44A3EB0803A4B2B3FBFEFC0EFB7D
:104230001C330CFB07F744EA0344A7424ED92C1960
:104240000CF1FF3304D2A74202D9ACF102032C4493
:10425000E41B43EA0040C0E7C2F1200320FA03F167
:10426000954090402EFA03F303434FEA154EAFB248
:10427000B1FBFEFC0EFB1C10190C0CFB07F841EA0D
:104280000041884504FA02F422D969180CF1FF3084
:1042900004D2884502D9ACF102002944A1EB0801FF
:1042A0009BB2B1FBFEFC0EFB1C110CFB07F743EAB3
:1042B00001439F420ED9EB180CF1FF3104D29F420B
:1042C00002D9ACF102012B44DB1B41EA004192E729
:1042D0006046E3E76146F7E76046A3E76346B7E772
:1042E000834206D916B9002108467BE7C6E900E0FB
:1042F000F9E7B3FA83F78FB9834201D3724508D83F
:10430000BEEB020460EB030301209C461EB90021B2
:1043100068E73846FAE7C6E9004CF8E7C7F1200C31
:10432000BB4022FA0CF41C432EFA0CF120FA0CF3D9
:10433000B84001434FEA14490EFA07F5B3FBF9F808
:104340001FFA84FE09FB18300B0C08FB0EFA43EA37
:1043500000439A4502FA07F240D9E31808F1FF300A
:1043600004D29A4502D9A8F102002344A3EB0A0320
:1043700089B2B3FBF9F809FB183308FB0EFE41EADA
:1043800003418E452CD9611808F1FF3304D28E45C4
:1043900002D9A8F10203214443EA0040A0FB02989D
:1043A000A1EB0E014145CE46434602D306D14D4511
:1043B00004D2B9EB020E68EB04030138002EA6D03C
:1043C000B5EB0E0261EB030101FA0CFC22FA07F3D4
:1043D0004CEA0303F940C6E9003198E74046C5E7D7
:1043E0004346D9E710B51F4A1F4B204CC4E90023B0
:1043F00005F0E2FA00F040FDBFF36F8F72B61C4B80
:104400004FF0FF32C3F88020C3F88420C3F888201F
:10441000C3F88C20C3F89020C3F89420C3F89820E8
:10442000C3F89C20C3F88021C3F88421C3F88821F5
:10443000C3F88C21C3F89021C3F89421C3F89821C4
:10444000C3F89C2101F08EFE236883F308880023C3
:1044500083F31488BFF36F8FBFF36F8F6368BDE87A
:104460001040184740B00020CD950200380B0020C6
:1044700000E100E010B54FF08042D2F80034D2F8ED
:104480001C15572903F0010305D10020C2F81C05B3
:1044900000F0D6FDFEE79BB10B4C0C4A236819686F
:1044A000914204D10020186000F0CAFDFEE71A60B6
:1044B0004FF48040002107F0F3FE236800221A60C9
:1044C000FFF790FF002010BDB0000020D51A5A0061
:1044D000014B1B68184700BFB4000020014B186057
:1044E000704700BFB400002030B585B004460D46CB
:1044F0001022002168460AF0EDFD02238DF80230FB
:104500002A46044B01932146684608F077F905B026
:1045100030BD00BFD1440F0080B505460E4617469A
:10452000984607F0F9FE03460AF0DCFDDFF8189024
:10453000044649F80030424630463946A84754F808
:10454000090001F021FE00BF0800000008B5044684
:10455000EFF31183202383F31288BFF36F8F05F0ED
:104560002BFA204601F0ECFD024808F071FD09F03D
:10457000B5F9FCE752F70F002DE9F047058B04462B
:104580002807904611D4022905F0070540F0CC8099
:10459000204608F085FD78B10138218B042811D818
:1045A000DFE800F0C2106D85950001290CBF45F0D1
:1045B000100545F02005258388F31188BFF36F8F20
:1045C000BDE8F08701F0070AAA4500F0A5800027A2
:1045D000B9463E46A368002B00F0BC8041F00801BC
:1045E000218388F31188BFF36F8FA168002900F041
:1045F000BA800D68002900F0B680D1F804803346F7
:1046000052462046C047002D76D02B6829461D46CD
:10461000F0E701F007035A1F012A1BD8002221F0FE
:104620000701062B276889B2C4E9002209D13B465D
:1046300003E0628B013262831B68002BF9D141F0E9
:1046400002012183204608F02BFD00287AD041F09A
:10465000200176E0042B0AD121F0070189B22183E1
:10466000204608F01DFD10B141F020012183218B6F
:1046700001F0070AAA454FD00027B946AAE72369E7
:1046800021F0070141F00601062DD3F800902183A7
:104690002DD1B9F1000F3FD041F00801218388F3FB
:1046A0001188BFF36F8F3A492046C84729E021F0AF
:1046B0000701236941F0040189B2042DD3F8049065
:1046C0002183E6D000273E464FF0040A82E721F01E
:1046D0000701236941F0050189B2052DD3F808903F
:1046E0002183D6D000273E464FF0050A72E7002707
:1046F0003E464FF0060A6DE72B4687E7B9F1000FFB
:10470000D1D1EFF31188202383F31288BFF36F8F89
:10471000238B23F008032383258BEA062ED525F06F
:104720001003238305F007056669218B002EBFF671
:1047300070AF00232768C4E9003321F0070141F07E
:1047400001012183218B01F0070AAA454FF00009DE
:104750007FF440AF002F9CD041F00801218388F303
:104760001188BFF36F8F002FC8D03D68394633469C
:104770005246204608F0C0FC2F46F4E7AB067FF512
:104780001BAF25F02003238305F0070500E700BFDA
:1047900025D10F00014B036000207047F8F30F0094
:1047A00070B5114B1C680D46DCB1104B1968002325
:1047B0008B4202DB6FF0010070BD224612F8106BD5
:1047C000864202D001331446F2E7E06810B96FF078
:1047D0001200F1E70AF003F80028F8D02C6000205E
:1047E000EAE76FF00C00E7E7B8000020F8F30F00ED
:1047F0002DE9F3470D46DDE90A7891461E46044649
:1048000020B96FF00D0002B0BDE8F0870029F8D0A4
:10481000002AF6D00093002301938B680846DB68DA
:1048200098470268B6FBF2F302FB136382466262AA
:10483000002BE6D16A461549284609F081FA019A0B
:10484000002ADED007EB08039A42DAD3616AB7FB8D
:10485000F1F301FB1373002BD3D1C4E90096E5609B
:104860002361A3606761B8F1000F01D1A2EB0708D3
:104870000C9BE3614FF0FF33C4F8188023629AF871
:10488000053084F828300020BDE700BFE3D40F00D6
:10489000F0B40C4B0C4E5F6A0C4BB34203D36FF079
:1048A0008500F0BC70475D68BD4209D31C693CB10E
:1048B00095F802C00579AC4502D12346F0BC1847F3
:1048C0002433EAE7400B002038070020CC06002004
:1048D0002DE9F047134CDFF85080DFF85090054683
:1048E0000E461746444503D36FF08500BDE8F087B8
:1048F0006268D9F824309A4212D3A36983B19078C0
:104900002979884205D13A4631462846BDE8F04724
:1049100018475279012A03D13A463146284698472A
:104920002434DFE7CC06002038070020400B0020AD
:104930002DE9F0410B4CDFF8308005460E46174656
:10494000444502D36FF0850009E063690BB9243454
:10495000F6E73A463146284698470028F7D1BDE8A1
:10496000F08100BFCC0600203807002010B50446B7
:1049700009F01BF810F1780F00D050B9054A204615
:1049800008F063FED2F8443823EA0003C2F8443842
:10499000002010BD400B0020024B00221A605A601C
:1049A000704700BF7B13002070B50B4B0B4CA3422C
:1049B00001D3002070BD196A1E7F00220439D5B2D0
:1049C000AE4201D82433F2E7013211F83250854269
:1049D000F5D10120EEE700BFCC060020380700200B
:1049E00008B509480378C3F341130A3350F823305C
:1049F0003BB100F1080200F110019847C043C00F1D
:104A000008BD1846FCE700BF400B002004282DE934
:104A1000F14FDFF8989004460F4616D001282DD1AB
:104A2000DFF88C8098F8393843B300F031FE214D1F
:104A30004D4520D2D5F820B04FF0000A2B7F5FFA09
:104A40008AF6B34204D82435F2E7FFF7A5FFE7E77B
:104A50000BEBC6060AF1010A307908F0A6FF024600
:104A6000307908F0F2FDD8F84438002A23EA000330
:104A7000C8F84438E2DA002388F839380D4D4D453E
:104A800008D30B4B1B6A6BB13946204601B0BDE819
:104A9000F04F1847EB681BB13A4621462846984725
:104AA0002435ECE701B0BDE8F08F00BF38070020E7
:104AB000400B0020CC06002073B5C4B263060D463F
:104AC0008DF8074007D02046FFF76EFF78B10D4BF9
:104AD00093F83A0858B10B4E204655B102F052FAFD
:104AE000F3691BB10DF1070108209847012002B0BE
:104AF00070BD02F06FFAF369002BF7D00DF10701DA
:104B00000920F2E7400B002073B586788DF800602D
:104B1000037942791C4C43EA0223ADF80230C37892
:104B2000304603F003038DF8043008F08EFDD4F80E
:104B30004438184205460BD0304600F08BFD304615
:104B4000FFF714FF09F0DAFF10B9962007F0C6FB53
:104B5000684602F0F3F910F1780F03D010B100208D
:104B600002B070BD9DF8000002F070FA10F1780FED
:104B700001D00028F3D1D4F8443801202B4384F825
:104B80003908C4F84438EBE7400B00202DE9F04722
:104B9000A34EB36904460F461546FBB9237803F0CC
:104BA0001F03012B00F09D80022B00F0048133BB1A
:104BB00094F900002A686178002834DA062912D0B6
:104BC00008292BD0D9B901231370517096F84338B6
:104BD0005B0043F00103137002232AE19847002889
:104BE000DCD100200DE06288100A011F01298446F3
:104BF00005D9072803D8716AD2B20C781CB96FF0B6
:104C00001500BDE8F0874E78664503D19A4200F062
:104C10000B8101332144F0E70B780AE196F83A382A
:104C20001370012305E101390829E8D801A353F8DD
:104C300021F000BFCD4C0F00FF4B0F00DB4C0F00ED
:104C4000FF4B0F00594C0F00FF4B0F00FF4B0F00A5
:104C5000FF4B0F00654C0F00A07802F05DF90028B3
:104C6000BFD0CCE76388756A63BBFFF795FE6388A6
:104C700086F83A38F369002BB3D06A490320984785
:104C8000AFE76B78042B10D0052B11D0022B04D189
:104C90006F796388BB4208BF01202B781D442B78B5
:104CA000002BEED10028AAD0DFE795F80380F4E7C7
:104CB0006388BB42F1D1B8F1000FEED12846FFF76F
:104CC00023FFEAE7FF270020B846E8E76388012BC7
:104CD00095D1002386F8433883E76388012B8ED172
:104CE000F8E796F83A38D5F800C0002B87D0756AF7
:104CF000A38894F804E02A46107800283FF47FAF98
:104D00005178022904D192F80480F04500F2938092
:104D10000244F1E78CF800208CF80120396060E74C
:104D2000154494E00B2A7FF46AAF00274FF0FF0888
:104D3000C146BA4606E06B78042B0FD0052B21D074
:104D40002B781D442B78002BF5D1F36913B1514614
:104D500007209847002F7FF444AF50E795F8028072
:104D6000A38895F803909845EAD163889945E7D1DF
:104D7000B8F1070F1CD806EB0803AA4683F83B9846
:104D80000127DDE7A3884345DAD1A3784B450AD054
:104D9000AF78384600F05EFC3846FFF7E7FDB0FA22
:104DA00080F77F09CCE72846FFF7AEFE0746C7E746
:104DB000AA460027C4E794F900206378002A18DA8D
:104DC000002B7FF41CAF24792D6863060AD020469F
:104DD000FFF7EAFD00283FF412AF96F83A38002BAF
:104DE0003FF40DAF2946204602F014F900236B7002
:104DF000F2E6012B08D0032B7FF401AF6388002B70
:104E00007FF4FDAE012103E0618800297FF4F7AE55
:104E1000A088FFF751FE00287FF4E3AEEFE600BF65
:104E2000400B00207A130020022829607FF4F4AEA2
:104E30004B883B60D5E694F9000062780028BFF605
:104E400071AF002A3FF466AF0A2A7FF4D8AE2A7801
:104E5000002A3FF4D4AE697804297FF461AFA978C1
:104E60008B427FF45DAF072B96BF9B19002393F80D
:104E70003B388CF80030D4E670B5164D95F83838CC
:104E8000FBB102F029F8002822DB00F001FC00242D
:104E9000D5F84438E340DA07E6B214D4D5F84438FC
:104EA00004F11002D340DB0705D546F08000FFF780
:104EB0005DFD00280CDB0134102CE9D1002385F8BE
:104EC0003838002004E03046FFF750FD0028E5DACE
:104ED00070BD00BF400B002013B5164C237DF3B905
:104EE000E268A168019201AB802008F0BCFB019A46
:104EF000A3681344A360E3689B1AE3606BB962B1D3
:104F00002369E2889A4208DD94F8482893FBF2F17D
:104F100002FB11330BB90123237502B010BD00232E
:104F20001A4619468020237502B0BDE8104002F0F1
:104F3000B7B800BF400B002030B585B00023024653
:104F40000D460193002859D1002936D108220B467D
:104F50000DEB020108F042FD002804DA802002F087
:104F600011F805B030BD2A4C029A2260039A6260A3
:104F700004F13802A2609DF90820BDF80E302575B5
:104F8000002AC4E903550BDBB3F5006F04D9802078
:104F900001F0F8FF0020E2E713B1C4E90333E0E7D2
:104FA000FFF71EFD0028D9D0E28823699A42D4BFBA
:104FB000E260E360FFF790FFD3E7154CD4E90215F8
:104FC000002D01AB04DC08F009FD0028C9DAC5E7B3
:104FD0002A4608F003FD0028D9DB019AA368134490
:104FE000A360E3689B1AE360002BBAD104F1380395
:104FF000A360FFF7F5FC0028DCD1AFE78028B0D133
:10500000034BDA68002AD5D11B7D002BD2D1A8E74B
:10501000400B0020054B064A9A62064ADA62064AAD
:105020001A63064A58629A6100207047400B0020BC
:105030008D4B0F0091480F0031490F00D1480F00F0
:105040002DE9F3410446474D47484FF0FF334FF0F9
:10505000FF3206F045FB95F83838002B7BD16B6AA0
:1050600083B142482C62E8616E6A02F033F901F0C4
:1050700001FF041E10DA3C4806F0AAFB204602B0ED
:10508000BDE8F08100F0BEF8FFF7C4FF6B6A002BAB
:10509000E7D14FF0FF34EEE700F01CFB041EEADB23
:1050A0007378012B5AD1F379002B57D0002668462C
:1050B00085F84838ADF802308DF804608DF800604E
:1050C00001F03CFF041ED6DB802768468DF8007097
:1050D00001F034FF041ECEDB2549304602F0E6F82D
:1050E000041EC8DB2249384602F0E0F8041EC2DB89
:1050F000204CDFF8848044451AD3002001F0A6FF3D
:10510000041EB8DBD5F84438802043F00103C5F80D
:10511000443801F09BFF041EADDBD5F8443843F45E
:105120008033C5F84438012385F838380024A2E7D5
:10513000276A0026227FF3B29A4201D82434DAE7A4
:1051400007EBC30257F83310107902F0AFF80136BD
:105150000028EFD09DE76FF077048CE76FF015041F
:1051600089E700BF400B0020FC0400200D4A0F001F
:10517000394F0F00CC0600203807002030B51F4BF8
:105180008BB005AA03F1100518685968144603C4CA
:105190000833AB422246F7D11B782370102200213E
:1051A00001A809F097FF12220021154809F092FF8B
:1051B000102101A808F045FE00281BDD0828B8BF13
:1051C0000820093801AB0E491A18002012F8013FD7
:1051D0000AAC04EB131403F00F0328336B440130C3
:1051E00014F8144C13F8143C0C7008284B7001F19F
:1051F0000201EBD102480BB030BD00BF7BF70F00BE
:10520000E12800202DE9F04F724B93F800B087B0F1
:10521000BBF1000F03D0704807B0BDE8F08F6E4CB3
:1052200000264FF0011AB0463546B14623783BB907
:105230006A4B02349C42F3D1664A01231370EAE7B9
:105240006378052B1BD8DFE803F08E03C38E1D396E
:10525000402304A88DF810B0ADF812308DF814B0CA
:1052600008F08EFB40B1082304A8ADF8123008F016
:1052700087FB08B1ADF812B0BDF81230E3712378A6
:105280001C44D3E7E378002BF9D1A3786BB108F184
:1052900001085FFA88F8F2E76B689C4207D0243572
:1052A0004F4B9D42F8D30020B6E74E4DF8E7AB6870
:1052B000002BECD0414620469847E8E7002DF2D07D
:1052C00000222B7F9A42EED2296AA07801EBC2011C
:1052D0000B79984201D00132F3E70127E07800F022
:1052E00003008DF81400207994F805C040EA0C20E2
:1052F000ADF8120094F902000028FBB228DA07F199
:1053000010004FF0010C0CFA00F010EA0A0F26D141
:1053100043F080008DF8100004A8CDE9021301923B
:1053200008F02EFBDDE90121039BC0B99DF8102098
:10533000A27012F0800F18BF10330A7118BFDBB2D1
:105340004FF0010214BF9A40BA404AEA020A96E7B7
:105350000120B84010EA0A0F01D11846DAE70137F8
:10536000102FBBD1B7E7032E1AD1FFF707FF07466F
:1053700050B1FEF7DFFE024630B11028A8BF102260
:105380003946A01C09F07EFE23786FF00201E21876
:10539000091B04EB5303D14213D50136F6B26EE775
:1053A000002EF1D1B9F1000F3FF47DAFA4EB09035A
:1053B00089F80230C3F3072389F8033089F80480A1
:1053C000EBE702F801BC13F8010902F8020DE2E76D
:1053D000A14654E7E028002040050020CB0600202D
:1053E00038070020CC06002010B5094B00211A46D2
:1053F0001C78844205D15C681CB1482303FB012062
:1054000010BD0131042903F14803F1D10020F7E771
:105410008C1300202DE9F34150F8303C10F8346C27
:10542000103304460AD1036950F8282C980736D562
:10543000D2B9590715D5002344F8303C54F8303C14
:1054400010330BD054E9097554F81C8C09F056FB45
:1054500000284FD02E48214609F034FB02B0BDE8A9
:10546000F08143F00403236154F82C1C01AB304657
:1054700008F0F9F810B16FF01503DDE7019A54F860
:105480002C3C134444F82C3C54F8283C9B1A44F818
:10549000283C54F8243C134444F8243CCEE754F808
:1054A0002C1C01AB304601F077FE0028E3D1019DB2
:1054B00054F82C3C2B4444F82C3C54F8283C5B1BFF
:1054C00044F8283C54F8243C2B4444F8243C002D58
:1054D000B1D0304601F004FFB5FBF0F303FB1055EB
:1054E000002DA8D154F8283C002BA4D0304601F060
:1054F0009BFEA3E744F8200CA4F1180006F0D6F9AF
:10550000002DABD0424639463046A847A6E700BF3B
:10551000980700204B1E012B73B506460D460FD889
:10552000FFF762FF044668B9012D09D101AB0122E2
:105530000DF10301304601F02FFE019B002BF5D148
:1055400002B070BD09F0DAFA04F1340108B1012D9E
:1055500005D1084602B0BDE87040FFF75BBF0348C5
:1055600002B0BDE8704009F0ADBA00BF9807002056
:105570002DE9F74F804600911746994608F0BBF891
:10558000044600285CD1EFF3118B202383F31288AB
:10559000BFF36F8F2C49002208460023019106F0CB
:1055A000A9F9019968B9DFF8A4A0482262430AEB7F
:1055B00002056E6816F1100F12D1084606F076F952
:1055C00006E00134042C01F14801E4D16FF00B0630
:1055D0008BF31188BFF36F8F304603B0BDE8F08FB7
:1055E0000AF802800C9A009B6A610D9A2861AA61F0
:1055F00040466FF00F02C5E90237C5F844906A6073
:1056000001F06EFE58B1404601F06AFEB7FBF0F2C1
:1056100002FB10771FB16A6C42F004026A6419F051
:10562000020F08D0482202FB04A10948343109F0D6
:1056300049FA0026CCE7404601F0F6FD0646C7E7EA
:105640006FF00F06C8E700BFA81300208C130020DE
:105650009807002010B5EFF31184202383F31288FC
:10566000BFF36F8FFFF7C0FE50B14368103307D10F
:105670006FF08B03436000F13401044809F022FA13
:1056800084F31188BFF36F8F10BD00BF980700200F
:10569000F8B50E4C04252027EFF3118687F3128806
:1056A000BFF36F8F6368103307D16FF08B03084827
:1056B000636004F1340109F005FA86F31188BFF341
:1056C0006F8F013D04F14804E6D1F8BD8C13002032
:1056D0009807002070B50A4C0A4E00253146204636
:1056E00009F0D4F90122A4F118001146013509F09E
:1056F0007EF9042D04F14804F0D1002070BD00BFF4
:10570000C013002015540F0070B504460E460179F1
:105710001548154607F0CBFF10B394F900206378C5
:10572000002A16DB202B04D0222B0ED06FF0850030
:105730000AE02B681A6840F8102C9A8820F80C2C84
:105740009B7900F80A3C002070BD638800F8093C92
:10575000F9E7212BEAD11038072328603360F2E7FC
:105760006FF01200F0E700BFAC14002008B501464E
:10577000034807F0AAFF10B1012300F8073C08BD59
:10578000AC1400200169012381F84B300B6833B160
:1057900091F849301BB10248083109F093B97047BC
:1057A000980700200169012381F84A300B6833B162
:1057B00091F848301BB10248083109F083B97047AD
:1057C0009807002070B5012382F8483013680D4611
:1057D00014463BB192F84A3023B10E4802F1080159
:1057E00009F070F9D4F890301A699B689A4205D193
:1057F0007DB904F1180140F6CD4204E004F118012E
:10580000002DF8D00022BDE870400248002306F0C9
:10581000F3B970BD9807002070B50569EFF31186E4
:10582000202383F31288BFF36F8FD5F8900007F021
:1058300090FD044686F31188BFF36F8F30B10448A2
:105840000022002305F1180106F0D6F9204670BDAC
:10585000980700200D4A03460021A0F84810106860
:10586000C3F8940090889279A3F8980083F89A205E
:1058700083F89C1083F89B10A3F89E1083F8A01067
:10588000402203F14C0009F025BC00BFE8F30F00F3
:10589000F0B5D0F88C305B681B6A1F7D85B004467C
:1058A000384607F028FF0646F8B994F88630E3B189
:1058B000A06F4FF4806203A907F06AFD0546A0B10E
:1058C0008306A4F1180308BF00F1FF3584F83060A7
:1058D0000193074B039900932A4602233846FFF7AA
:1058E00047FEA06F294607F073FD05B0F0BD00BF6D
:1058F000C5570F0010B504690023C4F8A8300C4B3D
:10590000C4F8A400596804F1A80269B9C3E90022E7
:1059100004F10800074909F0B9F804F11800064934
:1059200009F0E0F8002010BD0A605A60F0E700BFFF
:10593000AC14002021D70F0091580F0073B50469F3
:105940008DF80710002384F848302025EFF31186E6
:1059500085F31288BFF36F8F0122D4F890000DF108
:10596000070107F0F6FC86F31188BFF36F8F01285B
:105970000AD009F0C3F810B994F8A1306BB9094BFB
:105980001A780AB901221A702122002304F11801A1
:10599000054806F031F902B070BD0021212006F063
:1059A0007FFCD3E7F32800209807002037B5144682
:1059B0000A1E054620DDD4F88C0004F14C0107F0E6
:1059C000C8FC012384F8493023683BB194F84B307C
:1059D00023B1114804F1080109F074F8D4F88C10CF
:1059E0004B684A699A1ACB699B1A3F2B04D801234A
:1059F00084F8A03003B030BD94F89E30002BF9D06D
:105A0000064B009301940123402204F14C012846E7
:105A1000FFF7AEFDEEE700BF98070020AD590F007D
:105A2000F7B50D4601461D4807F035FE044610B394
:105A30000646691E56F8A4395F6805291BD8DFE8B9
:105A400001F01C1A031C222610F8061C99B9012328
:105A500000F8063C3B6A3246187BFFF7A7FF14F8B4
:105A60005C2C42B93B6A187D0D4B009301960223D2
:105A70001146FFF77DFD03B0F0BD304603B0BDE831
:105A8000F040FFF7E7BE012304F8053CF3E710F808
:105A9000053C002BEFD00023F6E700BFAC1400203C
:105AA000C5570F00014B9970704700BF9D0500203E
:105AB00037B590F900200378002A044626DB03F06E
:105AC0001F00012822D163780B2B14D16388032B8C
:105AD0001CD8DFE803F00302141603200D4D01A9C2
:105AE0002870FEF75DFE70B9019883686B6007F05F
:105AF000A5FC6388EB606FF0150003B030BD042097
:105B0000ECE70820EAE76FF00400F6E76FF08500A5
:105B1000F3E700BF1401002010B5084C2046002315
:105B200010F8101BA360A4F8423207F0B9FE18B1B8
:105B300040F60A63A4F8403210BD00BF14010020F3
:105B400037B51049104808F0A1FF1048104D09F072
:105B5000B2F91049104808F0C5FF1049104808F084
:105B6000C1FF287801A9FEF71BFE044638B9019849
:105B700083686B6007F062FC204603B030BD6FF0B5
:105B80000404F9E7A55B0F00B4140020C41400203E
:105B900014010020215C0F006807002017D80F00B7
:105BA0003807002070B51B4B93F80028022A01D05B
:105BB000052A11D1B3F80268174D1649B6FA86F3D3
:105BC0005B093246284607F02AFEA5F1100420B1F1
:105BD00040F20A33A4F8403270BDB6B9062384F807
:105BE0004032FFF799FF15F8103C042B07D1012034
:105BF00007F0A5FE18B140F20A33A4F84032074876
:105C0000BDE87040002106F07FBD052384F84032D6
:105C1000E2E700BFDC20002024010020C4140020A3
:105C200010B50C4C94F84032012B11D101F054F90D
:105C3000022384F84032084B08481860FFF7EAF95D
:105C40002120002106F02CFBBDE8104001F012B924
:105C500010BD00BF14010020F0060020090600203E
:105C6000F8B5144690F900204378002A05460E4600
:105C70003ADA032B0BD0052B2FD0022B4BD1474BFD
:105C800040F60A72A3F840226FF0850024E0434DED
:105C900095F84032062B09D1082385F84032404957
:105CA00040484FF48042002305F0A6FF236895F892
:105CB00041221A70B5F84432226853701B0A93705F
:105CC00022680023D370226895F84012117122686F
:105CD0005371062333600020F8BD304A236892F8E0
:105CE00040221A700123F5E7062B14D8DFE803F0F1
:105CF000451F131316130400284C94F84032012B4F
:105D000005D9FFF709FF0223A4F84032E3E7234B4C
:105D1000002283F840226FF01500DDE71F4B93F857
:105D20004022012AF3D90222A3F84022D3E71B4FD5
:105D300097F84062012EEAD9022E08D0052E0BD02A
:105D400040F60A63A7F84032FFF7E6FEE3E7FFF705
:105D5000E3FE154809F0B4F81448042387F84032EC
:105D600080F80068EA88A0F80228216809F08AF91A
:105D70000F490C4808F0A6FEADE7084B93F8402207
:105D8000002AC4D1012283F840220A49054840F67E
:105D9000CD42002305F05AFF9DE700BF140100200B
:105DA0003807002098070020C4140020DC200020C1
:105DB000B41400206807002037B5094D09490024B4
:105DC00000944FF0FF334FF48062284605F0D6FE72
:105DD0000549284608F098FE204603B030BD00BFB4
:105DE000980700204029002099F70F0030BFFFF7E7
:105DF000FDBF00BF2DE9F0410B4EDFF8308006EB10
:105E00000807CC1B054632460949204609F03AF9F5
:105E1000A01942460021083C09F05CF96C6707F1C3
:105E20000800BDE8F08100BF000000000400000091
:105E3000A8F30F00074A936893F90E10002907DBB7
:105E4000526993421FBF044A536843F08053536022
:105E5000704700BFA420002000ED00E070B5264B85
:105E600015469A6A12F0100F9A6A14BF1124102472
:105E700012F0080F9A6A18BF1224920706460AD534
:105E8000586B9A6A140634D519B19A6A22F08002C6
:105E90009A62132401E06FF01500174B9A6A12F012
:105EA000010F9A6A18BF142412F0200F9A6A18BFC3
:105EB0001524D20602D49B6A9B070AD50E4B5B6859
:105EC000190506D5314600F063FA10B180F3098850
:105ED0000224094B9A6A920642BF5A6A22F400527F
:105EE0005A629A6A42F0FF029A6200232B7020469F
:105EF00070BD6FF01500CCE700ED00E0134B9A6A1F
:105F000012F0007F9A6A14BF1E201D2012F0807FBD
:105F10009A6A18BF1F2012F4002F9A6A18BF212016
:105F200012F4802F9A6A18BF222012F4003F9A6A56
:105F300018BF232012F4803F9A6A6FEA02426FEA88
:105F400012429A6218BF2420704700BF00ED00E0A3
:105F500010B5194B0246986A9C6A10F4805F14BF12
:105F60001720162014F4006F9C6A18BF1820A4058F
:105F700009D5986B986A000404D51AB19A6A22F47C
:105F800000429A6219200C4B9A6A12F4806F9A6A46
:105F900018BF1A20D2050CD49B6A13F4005F18BFF7
:105FA0001C20054A936A43F47F43936200230B70DD
:105FB00010BD1B20F5E700BF00ED00E0F0B5484B39
:105FC0005B688BB00446C3F30803002585F3118892
:105FD000BFF36F8F02F07F40B0F17F4F11D102F01D
:105FE0000C0008280DD010074CBF0C4601250022DC
:105FF000033B8DF80720032B05D8DFE803F024636B
:1060000067602C46F3E700239DF80720CAB902AE6B
:1060100004F1200720686168324603C20834BC429C
:106020001646F7D1099A002D54D0C2F3080121B9C0
:106030006FEA52226FEA4222099202A9184607F03B
:1060400031FC0BB0F0BD264BDA6A9107DBD4DA6A7B
:10605000002AD8DBDA6A5200D5D55A69A16942F420
:1060600080725A61BFF34F8FBFF36F8F5A6931F857
:10607000021C22F480725A61BFF34F8FBFF36F8FFF
:106080004DF6027291420AD09A6AD2B24AB10DF12B
:10609000070201212046FFF7E1FE0346B4E723682B
:1060A000B2E79A6A12F47F4F05D00DF10701012083
:1060B000FFF74EFFF1E79B6AB3F5803FA3D3FFF7ED
:1060C0001DFFEAE70DF107020021E3E70DF10701EB
:1060D0000020EDE722F4FF7222F00102ACE700BFDE
:1060E00000ED00E0044B5A6942F010025A615A690F
:1060F00022F008025A61704700ED00E0EFF30880DB
:10610000EFF3098101B57246FFF758FF01BD00BFEB
:1061100003F084FC202080F3118808484FF40461C8
:10612000401880F30988EFF314800221084380F3BC
:106130001488BFF36F8F00F0EBF80000C03100202F
:10614000BFF34F8F0549064BCA6802F4E062134360
:10615000CB60BFF34F8F00BFFDE700BF00ED00E055
:106160000400FA050749D1F890200023C2F3072262
:106170001846934200DB7047C1F89830C1F8A00080
:106180000133F6E700ED00E0084B9B6883420BD13A
:10619000EFF3058343B1064B5A6842F080525A60D0
:1061A0005A6A22F400425A6208F083BDA4200020FB
:1061B00000ED00E0094A93686FF00A01D9670849C9
:1061C00098674B6843F080534B60002383F311883A
:1061D000BFF36F8F9368D86F704700BFA420002073
:1061E00000ED00E010B50446EFF31183202383F3A4
:1061F0001288BFF36F8F0A4B58699860094B4FF0B4
:1062000000625A60084B426F1A600022836F8267F7
:1062100083F31188BFF36F8F00F022F9204610BD81
:10622000A420002000ED00E0D41400200B498A686F
:106230004FF030001044EFF3098C80E8F01F7446F3
:106240007046FFF7CFFFA64604498A6802F1300086
:1062500090E8F01F8CF3098870470000A42000200C
:106260001EF0040F0CBFEFF30880EFF30980816983
:1062700011F8021C0229FFD001B507F019FB01BD7E
:1062800040B2002807DB044A4109012300F01F0047
:10629000834042F82130704700E100E040B200281E
:1062A0000CDB4309064900F01F0020330122824025
:1062B00041F82320BFF34F8FBFF36F8F704700BFAC
:1062C00000E100E0054B420900F01F0053F82220D6
:1062D000012303FA00F01040704700BF00E100E026
:1062E00040B20028A8BF00F1604001F10101B8BF31
:1062F000064B4FEA4111ACBF00F5614000F00F00C2
:10630000C9B2B4BF195480F80013704714ED00E00F
:106310000F4A08B50F4B22F07F029A60BFF34F8FF0
:10632000BFF36F8FD3F8882022F47002C3F888205F
:10633000EFF3148323F0040383F31488BFF36F8F08
:1063400005F0DCF806F086F800F060F805F01AF9C0
:1063500000400F0000ED00E042F8203C009B42F8B6
:106360001C3C0A49019B42F8183C029B42F8143C31
:1063700021F001014FF0807342F8043C42F8081C00
:106380000023203A02658367704700BF19450F005C
:10639000094A0346906870B113F1160F406E05D09C
:1063A000A0F140029A4205D8834203D2814228BF1D
:1063B0000020704700207047A420002008B5154633
:1063C0000B4A0C4B9060426F1A600E4600F048F882
:1063D0002C4686F309884FF00000074B984720466B
:1063E0004FF000014FF000024FF00003034C204734
:1063F000A4200020D4140020CFD80F0019450F008E
:10640000014B10221A61704700ED00E004480023A0
:106410002021C2180133302B82F80013F9D17047C4
:1064200000E100E008B5EFF30583064A103B02EBFC
:10643000C30152F8330049688847BDE80840FFF7B8
:10644000F9BC00BF28F20F00024B034A03480121A8
:1064500000F076B80000042000000020D0F40F0007
:10646000426E054B403A1A60044A4021C3E90112CA
:106470001846012100F06EB8D814002000000B155A
:10648000084AC2F898000B6823F01F03034343F047
:106490001003C2F89C308B6843F00103C2F8A030AF
:1064A000704700BF00ED00E02DE9F043DFF86080A9
:1064B00085B00E461F4604464FF00009B14523DA69
:1064C0006068D8B13FB1411E08421BD11F2819D9BD
:1064D0002368194216D12368019307F01BFAA368B9
:1064E00003430393D8F89050C5F30725D0B2013D7C
:1064F000A84207D801A9FFF7C3FF421C09F101090F
:106500000C34DBE76FF01502104605B0BDE8F083F0
:1065100000ED00E0044B0522C3F89420BFF34F8F39
:10652000BFF36F8F704700BF00ED00E0BFF35F8FD8
:10653000024B0022C3F89420704700BF00ED00E03A
:1065400010B5034C01232278FFF7AEFF207010BD79
:10655000F428002008B50B4A00231278FFF7A4FFA7
:1065600010F1160F07D0084A0021D2F89030C3F37B
:106570000723984200DB08BDC2F89800C2F8A010BB
:106580000130F2E7F428002000ED00E02DE9F043AF
:10659000534B544CD3F890302568C3F307239D42E6
:1065A00085B000F29A80FFF7C1FF00200C268542DB
:1065B0001AD14D4C4D4F25706846FEF7EBF8DFF8C9
:1065C0002081DFF82C9106460025AE4213D12378B6
:1065D00043490020D1F89020C2F30722934276DB92
:1065E000FFF798FF002042E0616806FB0011FFF70B
:1065F00047FF0130DBE7009800EB05114FEA051C6F
:10660000CB683B40B3F5000F48D00AD8B3F5001F64
:1066100030D0B3F5800F36D0B3F5801F10D00135E0
:10662000D3E7B3F1807F42D0B3F1007FF7D150F8C8
:106630000C3088684A6807F06DF940F4802009E062
:1066400050F80C3088684A6807F064F940F08850C8
:1066500040F43020CDE901230390D8F89030207821
:10666000C3F30723013B98422AD96FF0150005B008
:10667000BDE8F08350F80C3088684A6807F04AF9A2
:1066800040EA0900E6E750F80C3088684A6807F0ED
:1066900041F940F0007040F40030DBE750F80C3076
:1066A00088684A6807F036F940F08270D2E750F8FF
:1066B0000C3088684A6807F02DF940F08870C9E707
:1066C00001A9FFF7DDFE237801332370A7E7C1F8A6
:1066D0009830C1F8A00001337CE74FF0FF30C6E7E7
:1066E00000ED00E0DCF40F00F42800200000F0FFD3
:1066F0000000081108B5024B1B689847002008BD30
:10670000E4140020034B044A1860937843F002031A
:1067100093707047E41400205C03002008B506491C
:10672000064821F00701C1F1005202F5802206F06F
:1067300050FC002008BD00BF874E0020E814002058
:106740000E4A0123C2F840354FF080424FF080518D
:10675000C2F87835D1F83001082808D1D1F83411C1
:10676000052904D80648415C09B1C2F838364FF013
:1067700080430122C3F880250020704700E00140DB
:10678000B1F70F0020B1034B800143F0010318471C
:10679000704700BFF0F30F00020600F07F0312D530
:1067A000082B05D1010700F00F0306D50E487047EE
:1067B00010F0780F12D100F00F034C2000EB4310C3
:1067C0000A4B18447047082B05D1020700F00F034D
:1067D00006D50748704710F0780FF6D000207047B4
:1067E000044800EB4310704740160020F4140020CA
:1067F00060170020601600200149024808F062B9C5
:106800001C150020380800200146014808F0E4B8B3
:106810002805002002480022002305F015B800BF1B
:106820002805002013B5124800F0D6FE114B9842FF
:106830001AD1114803F056FF0024104803F098FFC6
:106840000F49104800944FF0FF334FF4806205F079
:1068500095F90D490B4808F057F90C480C4908F018
:1068600015F9204602B010BD6FF00400FAE700BF32
:10687000796A0F000000AD0BC5F70F00FCF40F00A4
:10688000802D002038080020B7F70F001C150020CD
:10689000956B0F0010B50E49BFF35B8F002351E8D5
:1068A000002F012A03D141E800300028F7D1BFF3BF
:1068B0005B8F0CD151F8044C1439204606F0CDFC06
:1068C000783004D12046BDE8104006F0A2BC10BDCF
:1068D0001415002038B5002464F07F00C0B2FFF723
:1068E0005BFF013407F035F8082CF5D10E4D00247C
:1068F000E0B2FFF751FF036903B90561013407F006
:1069000028F8082C05F14005F2D1084807F021F8D5
:10691000074BD3F87C2212B9064AC3F87C220648FA
:1069200007F017F8002038BD841B00204016002017
:10693000F4140020841700206017002010B5054CC7
:10694000FFF768FF20B14168204607F095FFF7E7A1
:1069500010BD00BFE004002007B500230E48002250
:1069600001A904F08FFE90B1FFF7E8FF0A4800226A
:10697000002301A904F086FE38B901980423406081
:106980000374FFF741FFFFF737FF002001E0019894
:10699000406003B05DF804FBE0040020022810B55D
:1069A00011D8094B1C5CFFF7D7FF60B100220274BD
:1069B0000472FFF729FF054B93F824301BB1BDE8A3
:1069C0001040FFF719BF10BDC2F70F00F4140020EC
:1069D000F8B5877806463846FFF7DEFE3B06F578C1
:1069E000044612D5002D43D1FFF7B6FF0346002819
:1069F0003ED00122A5770274032202739C60FFF748
:106A000003FFBDE8F840FFF7F7BE4DB1012D2FD1D0
:106A1000FFF7A2FF034658B3657705740573EDE7EA
:106A2000FFF79AFF20B3B278124B12F0800F02F0FA
:106A3000080111D041B1D3F8A836E36001230374F3
:106A4000022303738460DAE702F00F02142101FBD2
:106A50000233D3F80836F0E711B1D3F8A837ECE7E2
:106A600002F00F02142101FB0233D3F80837E4E7E8
:106A7000F8BD00BF00700240F0B5064689B0142290
:106A8000002103A808F026FB3378013B052B21D811
:106A9000DFE803F07A0314146A1603238DF8143028
:106AA0000024FFF759FF0346A0B1047400F1080267
:106AB000DDE9050182E8030018461DE00423EDE747
:106AC000B7783846FFF768FE837A044623B1013B66
:106AD000022B43D909B0F0BD3B06F57813D5002D44
:106AE000F8D1FFF739FF03460028F3D00122A5773C
:106AF0000274032202739C60FFF786FE09B0BDE8B2
:106B0000F040FFF779BE55B1012DE3D1FFF724FF27
:106B100003460028DED0657705740573EBE7FFF7C1
:106B20001BFF07460028D5D00123037402230373FB
:106B3000846004F10C01B07806F06CFF134AE16840
:106B4000B2F88C328B4206D95B1AA2F88C3201F073
:106B50008DF83846D0E7A2F88C52FAE7304609B0F3
:106B6000BDE8F040FFF734BF01A801F05DF89DF8E3
:106B70000530052B04D19DF8043013F0600FA9D027
:106B8000034B059301248CE702248AE7F4140020C8
:106B9000601600202DE9F043A64CDFF89C9285B0EA
:106BA0008046FFF737FE074610B905B0BDE8F08311
:106BB00094F825303A7C3BB9002A00F08680796849
:106BC0009D4807F059FEECE7042A42D8DFE812F0AE
:106BD0007D0005000001160140013B7BBD68032BD1
:106BE00037D8DFE803F0023D5A5F6E69934B00220D
:106BF00032607260D3F880143170D3F884147170ED
:106C0000D3F88814D3F88C0441EA00217180D3F8BA
:106C10009014D3F8940441EA0021B180D3F8981479
:106C2000D3F89C3441EA0323F3800823EB603068F7
:106C30007168834B03C311462B68687A984796F9AD
:106C40000030002B08DBF38833B1A4F88C3201F05C
:106C50000DF879684846B4E70023A4F88C32F8E7C9
:106C60006B7F002BF5D02B7F002BF2D000266E77A8
:106C70004FF0FF3273482E774FF0FF3306F07CFE63
:106C80006B6901936B68CDE9023601A9687A00F05F
:106C9000F9FC6C4806F072FEDBE72B680121687A8C
:106CA0009847D6E7AB7A6BB9EB7F5BB965484FF095
:106CB000FF324FF0FF3306F05FFE00F0DDFF61486A
:106CC00006F05CFE2B680221E9E73A7A042AC0D874
:106CD000DFE802F059032367730000F04BFC054620
:106CE0000028B6D100F086FBBFF35B8F5649012325
:106CF00051E8002F002A03D141E800300028F7D1E5
:106D0000BFF35B8FA5D141F8085C41F8105CE069E6
:106D10006361143906F026FA9BE7002565F07F00D1
:106D2000C0B2FFF739FD037A13B1407A01F008F9D8
:106D30000135082DF2D194F854311BB194F8550166
:106D400001F0FEF80025E8B2FFF726FD037A13B143
:106D5000407A01F0F5F80135082DF4D194F8743239
:106D60001BB194F8750201F0EBF8002000F0E6FB8F
:106D7000012384F825302368002B3FF46AAF0021FB
:106D80000220984765E7002584F8255001F03EF879
:106D9000FFF780FD2368002B3FF45BAF29460420FA
:106DA000EFE7002B3FF455AF00F0EEFB2368002B1C
:106DB0003FF44FAF00210520E3E72268002A3FF4AB
:106DC00048AF002B3FF445AF00210620904740E735
:106DD00008F110054FF0FF334FF0FF32284606F060
:106DE000CBFDFFF777FD284606F0C8FD58F8283C94
:106DF000002B3FF42EAF00210120C2E794F874323B
:106E00007BB1012584F8895284F88852FFF7A4FDEC
:106E100038B10E4A057405738260FFF7F5FCFFF781
:106E2000EBFC58F8283C002B3FF413AF00210A205C
:106E3000A7E700BFF4140020E00400200070024027
:106E4000F81400202C1500201415002060170020D5
:106E500007F093FB00F0DAFF00F0C2FAFFF76EFDD7
:106E6000FFF738FD07F082FB014800F0B5FBF0E6C4
:106E7000796A0F0038B5164D95F824402CBB05F102
:106E8000380007F031FD204601F0B0F9224601211B
:106E9000E8612720FFF724FA07F068FBFFF71AFDE7
:106EA000044610B9012385F824300A4B1B680BB146
:106EB000FFF7A2FC4FF08043D3F83834DB0702D54C
:106EC0000020FFF76BFD204638BD0024FBE700BF24
:106ED000F41400202805002010B50D484FF0FF32B3
:106EE0004FF0FF3306F048FDFFF728FD00F042FBAE
:106EF00008B100F08BFFFFF7CDFC07F03EFB054823
:106F0000002480F82440383006F038FD204610BDBB
:106F10002C150020F4140020074B93F824203AB1DC
:106F200093F82530002B14BF00206FF0120070473B
:106F30006FF01200704700BFF414002038B5104BFA
:106F400093F824300446C3B105782846FFF724FCA3
:106F500010B96FF0150038BD4572237983726388CC
:106F600043602078618810F0080F02D14B1E0B425D
:106F7000EFD106F04AFD0020EDE76FF01200EAE7DE
:106F8000F414002038B5124B93F824200546CAB1FA
:106F900093F82530B3B1FFF7FFFB0446A8B1837A1D
:106FA000012B12D007D9023B012B07D96369A361DA
:106FB0000020E06038BD00F065FEF7E7284600F0ED
:106FC00007FEF3E76FF01200F4E76FF01500F1E74A
:106FD000F414002038B50E4B93F82420054682B1F6
:106FE00093F825306BB1FFF7D7FB68B115F00804B3
:106FF0000AD1284600F00EFE284600F0D9FF2046B0
:1070000038BD6FF01200FBE76FF01500F8E700BF26
:10701000F414002038B50C4B93F8242005460C4698
:1070200062B193F825304BB1FFF7B6FB48B144B1DC
:10703000284600F0D5FD2070002038BD6FF012000A
:10704000FBE76FF01500F8E7F414002070B5134E5D
:1070500096F824300446C3B1FFF79EFB0546B8B14D
:10706000230705D4204600F0D5FD204600F0A0FF00
:107070002B7A83B901232B7296F825300BB90020A7
:1070800070BD204600F05CFFF9E76FF01200F7E7F3
:107090006FF01500F4E76FF07700F1E7F4140020CB
:1070A0002DE9F043DFF8E4801E4698F8243085B0DF
:1070B000074689461546002B61D098F82530002BED
:1070C0005DD003065ED5FFF767FB0446002859D064
:1070D000037A002B56D04FF0FF334FF0FF3208F108
:1070E000380006F049FCA37F4BB108F1380006F0E8
:1070F00045FC6FF00A04204605B0BDE8F083A37A92
:10710000C5B13BB30123A3774FF0000801A938466E
:10711000CDE90195CDF80C8000F0B4FA1C4B9842F3
:1071200029D084F81E801EBB6FF00404194806F0B5
:1071300025FCE0E7E27F02B1E577002BE2D100F029
:10714000A7FD8742DED000F097FD124806F016FC3E
:107150000024D0E7B8F80A309D42F0D26268B5FB4F
:10716000F2F302FB1353002BE9D10123E377E6E7A7
:10717000C6F80080D8E706B135600024D6E76FF086
:107180001204B8E76FF01504B5E700BFF41400204F
:107190000000AD0B2C1500202DE9F0411D46204BC1
:1071A000174693F824200E46002A33D093F8253052
:1071B00083B3030631D401B97FBBFFF7EDFA044670
:1071C00058B3037A4BB34FF0FF3316484FF0FF32FA
:1071D00006F0D2FBE368BB42984628BFB84646B9E2
:1071E0003FB905B12B600F4806F0C8FB0020BDE891
:1071F000F081A1694246304607F044FFA369434449
:10720000A361E368A3EB0803E360002DEBD0C5F8AE
:107210000080E8E76FF01200E9E76FF01500E6E79D
:10722000F41400202C15002070B51E4D95F8242074
:10723000034682B395F825206AB31B062ED4FFF7C8
:10724000ABFA044650B3037A43B34FF0FF334FF029
:10725000FF3205F1380006F08FFBE368B3B9012671
:1072600063692677A361637F83B1FFF775FB30B94C
:1072700005F1380006F082FB6FF00B0070BD06745C
:1072800084600673FFF7C0FAFFF7B6FA064806F007
:1072900075FB0020F2E76FF01200EFE76FF01500CA
:1072A000ECE700BFF41400202C15002010B5084BAB
:1072B00093F824300C462BB1FFF76EFA28B1046026
:1072C000002010BD6FF01200FBE76FF01500F8E72B
:1072D000F4140020014B1860704700BFF414002024
:1072E00008B5074B93F8243023B1FFF755FA20B1C6
:1072F000406808BD6FF01200FBE76FF01500F8E77B
:10730000F41400204FF08053D3F83021082A06D11E
:10731000D3F83431052B04D8034AD05C70470020E1
:1073200070470120704700BFC6F70F00064B10F0F2
:10733000800FA3F1D80208BF134600F00F001822F7
:1073400002FB0030704700BF9C1E0020EFF311804D
:10735000202383F31288BFF36F8F0A4BD3F8001CEE
:10736000032261B949F27531C3F8001CC3F8142D2A
:10737000C3F8001C80F31188BFF36F8F7047C3F808
:10738000142DF7E700E00640EFF31180202383F38C
:107390001288BFF36F8F0A4BD3F8001C61B949F212
:1073A0007532C3F8002CC3F8141DC3F8002C80F309
:1073B0001188BFF36F8F70470022C3F8142DF6E7D2
:1073C00000E006404FF08053D3F83031082B02BF65
:1073D000024B0022C3F81C2C704700BF0070024013
:1073E000024A00231360024A137070477C1F00207A
:1073F000F928002008B54A4B4FF40062C3F8002476
:10740000FFF780FF08B1FFF7A1FF4FF08053D3F8DB
:107410003031082B18D1EFF31180202383F3128829
:10742000BFF36F8F3F4BD3F8001CC02200296ED1F1
:1074300049F27531C3F8001CC3F8142CC3F8001CC2
:1074400080F31188BFF36F8F354B0122C3F80025FD
:10745000D3F800241205FBD54FF40062C3F80024D2
:107460004FF08053D3F83031082B17D1EFF3118050
:10747000202383F31288BFF36F8F2A4BD3F8001CAD
:10748000002947D149F27532C3F8002CC3F8141C07
:10749000C3F8002C80F31188BFF36F8FFFF732FF22
:1074A00030B1FFF771FFFFF72DFF08B1FFF74EFF77
:1074B0004FF08053D3F83031082B194B0AD140F2EA
:1074C000E372C3F800284022C3F80428BFF36F8F8B
:1074D000BFF34F8F8022C3F81C250122C3F830254B
:1074E000114B40F2FF121A60104B00211960104B33
:1074F0001970FFF767FF0F4B19700F4B02221A70BC
:10750000FFF700FF50B1BDE80840FFF73DBFC3F8EB
:10751000142C95E70022C3F8142CBBE708BD00BF6C
:107520000070024000E00640781F0020741F002019
:10753000F5280020F7280020F9280020094B002218
:1075400010B51A70084A094B094C002808BF1346A9
:10755000C4F800332720FEF793FE0123C4F8043556
:1075600010BD00BFF8280020FDFFDF01FDFFFF0177
:1075700000700240034B1878012894BF00200120BE
:10758000704700BFF928002010B5EFF311812023C8
:1075900083F31288BFF36F8F0D4B1B7803F0FF004E
:1075A00083B10C4BD3F8002412F400720AD10124E9
:1075B000C3F82C45D3F82C45D3F80044A40502D5D4
:1075C000C3F82C25002081F31188BFF36F8F10BD05
:1075D000F828002000700240F8B51C4B1C7894BBC2
:1075E0001B4A106001221A7040F2FF17264664F011
:1075F0007F0514F0080FEDB214BF3946402128462C
:1076000006F003FA2846FFF791FE0134092C86752F
:1076100006730661EBD1002440F2FF17254614F0F3
:10762000080FE6B214BF39464021304606F0EDF9A6
:107630003046FFF77BFE0134092C85750573056123
:10764000EDD10448F8BD0448FCE700BFF92800204C
:107650007C1F00200000AD0B0500AD0B084B10F0A7
:10766000800F00F00F0114BFD3F81025D3F81425B4
:1076700001238B40134214BF01200020704700BF3C
:10768000007002402DE9F8430246EFF311872023F2
:1076900083F31288BFF36F8F030703D1184B1B7856
:1076A000834229D1174B184E1C683568104606F0E6
:1076B000A4F9E443A4B24FF001092C4309FA00F8FD
:1076C00014EA08041AD11046FFF730FE80F80C9037
:1076D000034607C91C6183E807009C750B4B0C48E7
:1076E00045EA080580223560C3F8042187F3118834
:1076F000BFF36F8FBDE8F8830648F7E70648F5E764
:10770000F7280020781F0020741F002000E100E00F
:107710000000AD0B0A00AD0B0B00AD0B10F0080F15
:10772000074B06D0D3F8C00410F4803F18BF0020E8
:10773000704700F00F0000F5947053F82000704778
:10774000007002402DE9F74FA74BA84ED3F8542103
:10775000DAB10022C3F85421D3F80413890214D5F6
:107760008DF80420D3F82025ADF80620D3F8C034D6
:10777000002B336814BF4FF001224FF48072134383
:1077800033609B4B01A81B689847974BD3F8604127
:1077900034B10022C3F86021D3F86C44C3F86C44C0
:1077A000D3F828214AB10022C3F82821914B187838
:1077B00006F023F9012383401C43DFF83C828F4FFE
:1077C00098F8005098F9009015F0080143D1B9F1EC
:1077D000000F05F00F032EDA894A52F8230020B378
:1077E00042F823101422534303F1804303F51C3362
:1077F000D3F80836834A117803F001034B40137025
:10780000FFF7E0FD804804F051F82846FFF78EFDB1
:10781000837D032B37D1284606F0EFF8012303FAC6
:1078200000F03B6823EA00033B60DFF8C4A10125B8
:107830004FF006095DE0754A52F823000028F4D0A5
:1078400042F823101422534303F1804303F51C3301
:10785000D3F80837CEE7B9F1000F634B09DBD3F853
:107860005021002AE1D00022C3F85021D3F8A837D4
:10787000C0E7D3F82C21002AD7D00022C3F82C214E
:10788000D3F8A836B6E7037BDBB9284606F0B5F88F
:10789000012303FA00F03B68B9F1000F23EA00036B
:1078A0003B6001DA882DC0D106238DF80430002317
:1078B0008DF807304E4B8DF806501B6801A898478D
:1078C000B3E7002DB1D1484B0122DA64ADE794FA59
:1078D000A4F03268B0FA80F005FA00F31A430F28DA
:1078E000326024EA03043A6840F39480134200F0C3
:1078F000A180002CEBD13C4BD3F800215AB1C3F846
:107900000041434B1C703B4B1C7001230193384BCF
:1079100001A81B689847344BD3F85821002A2ED071
:107920000022C3F85821D3F80044C3F80044E3050B
:1079300008D5374B01221A70022301932C4B01A862
:107940001B689847A50508D5314B00221A70032300
:107950000193274B01A81B68984760050FD52C4B56
:107960001A7862B100221A701F4B0122C3F8082551
:107970009A65042301931E4B01A81B6898471A4B74
:10798000D3F85C3103B3204B9B681BB998F80030E7
:10799000590619D0144B0022C3F85C21D3F8803467
:1079A000144A23F07F0313703B6823F001133B60FC
:1079B000336823F4803343F00103336005230193DC
:1079C0000B4B01A81B6898473A6833681A4207D0E6
:1079D0000D480022002303F08DFF002800F09E8058
:1079E00003B0BDE8F08F00BF00700240781F002098
:1079F0007C1F0020F7280020F6280020741F00209C
:107A000008710240F5280020100500203071024066
:107A1000F828002013407FF46CAF60F07F018DF8F0
:107A200004908DF806108DF80730DAF8003001A8C0
:107A300098475EE7A0F110018DF804908DF80610CC
:107A40008DF80750F1E719F0012314BF93FAA3F959
:107A500099FAA9F9B9FA89F9B9F10F0F18D9A9F169
:107A60001005EDB22846FFF761FC04462846FFF7F3
:107A700055FE6368B4F814C02268984230D81B1AC7
:107A800000EB020E11466360C4F800E082462AE073
:107A900049F080052846FFF749FC4368B0F814A078
:107AA00001689A4528BF9A4601F06043B3F1005F30
:107AB000044604D04248524607F0E4FA404922689E
:107AC000636852442260A268A3EB0A03D20768B23B
:107AD000636032D5BAF1000F31D1002323732EE059
:107AE00011464FF0000A604524D1003B18BF012326
:107AF00012B3504520D9012303FA09F32BEA0303FB
:107B00003B6006238DF804302E4B8DF80650022280
:107B10001B68A2758DF8072001A89847D7F800B018
:107B200033681BEA03098ED1274803B0BDE8F04F44
:107B300003F0BCBE0023DBE768B2002BCDD04FF0D2
:107B40008053D3F83031082B02BF204B8222C3F878
:107B50001C2C336888F80050012202FA09F923EA44
:107B600009033360236915F0080F53442361174B51
:107B700017D1002805F00F054FF0140000FB053069
:107B8000B5BF03EB85030A35C0F80016C0F800172F
:107B9000B5BFC0F804A6C0F804A75A6043F8252072
:107BA0001EE70028B5BFC3F8A016C3F8A017C3F896
:107BB000A4A6C3F8A4A7B4BF5A629A6410E700BF92
:107BC000841D00207C1F0020100500200070024052
:107BD000024B40F48070C3F81805704700700240F3
:107BE000030713D400F00F0310F0800F084A0BBFF7
:107BF00003F5887303F5847302EB830252F82300C4
:107C000008BF5068003818BF012070470020704737
:107C100000700240034BC3F80C0540F48070C3F8B9
:107C20000C057047007002400023036043600E4B58
:107C3000D3F880240270D3F884244270D3F88824C7
:107C4000D3F88C1442EA01224280D3F89024D3F86E
:107C5000941442EA01228280D3F89824D3F89C3409
:107C600042EA0323C380704700700240014B0122A7
:107C7000DA64704700700240014B01221A657047B8
:107C800000700240014B01225A65704700700240AB
:107C9000014B1878704700BFF728002010B5024646
:107CA000EFF31184202383F31288BFF36F8F05F065
:107CB000A4FE0B49012303FA00F00B6823EA00033A
:107CC0000B6012F0080101BF02F00F02054B02F534
:107CD000947243F8221084F31188BFF36F8F10BDA4
:107CE000781F002000700240F7B50146EFF31185C0
:107CF000202383F31288BFF36F8FFFF717FB06462D
:107D0000084605F07AFE012211F0800F02FA00F217
:107D10002D4818D1036832EA03040AD00846FFF759
:107D2000BDFF0323B37585F31188BFF36F8F03B0D5
:107D3000F0BD2649347323EA020303600B6823EA8B
:107D400002030B60EDE70B0715D48029204B2FD0E1
:107D500001F00F0404F2DA346400C3F80048D3F8E9
:107D60000448D3F80478E4B244F002043C43C3F876
:107D70000448D3F80438154F04683B6864EA030CE0
:107D80001CEA020FCFD013433B600023337303235D
:107D9000B3758DF807300F4B8DF8061024EA0204F6
:107DA000062204601B688DF8042001A89847BAE7F2
:107DB00040F2B474C3F80048D3F80448D3F8047808
:107DC000E4B244F00404D1E7741F0020781F0020BF
:107DD000007002407C1F002038B50446094D4FF06A
:107DE000FF324FF0FF33284603F084FD2046FFF7B3
:107DF0007BFF284603F05AFD034B8022C3F8042181
:107E000038BD00BF1005002000E100E0F8B54FF0DC
:107E1000FF324FF0FF332B4803F06CFD2A4B8022DA
:107E2000C3F884212720FEF74DFA98B1274E284B3E
:107E300034681B68240C24041C43012764BB254DB3
:107E400040F2FF1333602720C5F80445FEF726FAF9
:107E5000C5F80043204A13788BB11E4B0021C3F8AC
:107E600008110121C3F80026C3F804165960D3F89D
:107E700008110029FBD00021C3F808111170154B1F
:107E80000022C3F80025FFF79DFA0E4803F00EFD0F
:107E9000124B01221A70F8BD94FAA4F5B5FA85F5D3
:107EA0000F2D2846C6BFA5F11000C0B240F08000DB
:107EB000030701D4FFF718FF07FA05F524EA0504C4
:107EC000BCE700BF1005002000E100E0781F0020A3
:107ED000741F002000700240F5280020F9280020BF
:107EE00010B504464FF0FF324FF0FF33114803F056
:107EF00001FD2046FFF7F8FE04F00F020123934036
:107F00000D4A14F0800F14BFD2F81015D2F81415D2
:107F10006FEA030315BF0B400B40C2F81035C2F8DF
:107F20001435044803F0C2FC044B8022C3F804213A
:107F300010BD00BF100500200070024000E100E00D
:107F400070B50446FFF78AFB68B904F00F020125FB
:107F500014F0800F144B05FA02F205D0D3F8101577
:107F60000A43C3F8102570BDD3F814150A43C3F8AB
:107F70001425631E062BF6D8EFF31186202383F316
:107F80001288BFF36F8F2046FFF788FE204605F06A
:107F900034FD064A1368854023EA0503136086F31F
:107FA0001188BFF36F8FDEE700700240741F00205E
:107FB000030610B5044605D4FFF712FE10B12046A3
:107FC000FFF76CFE014BC3F8184510BD007002406E
:107FD000084B70B5C31A0D4607499B100446594318
:107FE0000648402205F035FD2B4601462046BDE8F7
:107FF00070401847941F0020B76DDBB688F10F0062
:1080000073B50C4C0C4A4023041B00930D460B46E1
:108010000A49A41061430646094805F046FD011EC1
:1080200005DA30462B4602B0BDE87040184702B072
:1080300070BD00BF941F002015DB0F00B76DDBB6CD
:1080400088F10F0010B5EFF31184202383F3128819
:10805000BFF36F8F074A136823F00201DB0711603B
:1080600002D4012006F0D2F984F31188BFF36F8F98
:1080700010BD00BFE41F0020002270B5012104469E
:108080001046FEF72DF90F4801F052FE0E4B9842B4
:1080900015D101F05DFE26690C49304605F04FF818
:1080A00000280BDB012535642469084904F11C0014
:1080B00005F045F8002801DBE564002070BD6FF095
:1080C0000400FBE7D1810F000000AD0B00F50F00AD
:1080D0007FB500220123CDE9022304ABCDE90433AF
:1080E000094ACDF800D06B46CDF804D005F00BFD61
:1080F000002805DB4FF480420023684603F0FAFBBA
:1081000007B05DF804FB00BF33DB0F0030B4104B49
:108110000C2202FB003301460020D3E90E52986383
:10812000EFF31180202484F31288BFF36F8F1C6C4F
:1081300004F0C00444F002041C6480F31188BFF30F
:108140006F8F1DB12B46034830BC184730BC7047B9
:10815000941F002088F10F0010B4EFF31182202348
:1081600083F31288BFF36F8F1748016841F0020450
:108170000460C80707D482F31188BFF36F8F012012
:1081800010BC01F0FDBD4FF08041D1F80C04D1F8D6
:108190000C14C907EFD5EFF3118083F31288BFF3F6
:1081A0006F8F0A490B6C03F0C00343F002030B64AA
:1081B00080F31188BFF36F8F82F31188BFF36F8F45
:1081C000002010BCFFF7A2BFE41F0020941F002076
:1081D00010B1012804D07047034B1B6C5B0701D121
:1081E000FFF794BF704700BF941F0020024AC3B23C
:1081F0001C2003FB00207047941F00202DE9F04154
:108200003849BFF35B8F0746012251E8003F41E840
:1082100000200028F9D1BFF35B8F33B932493348CE
:108220004B60CB608A6004F09DFF7B1E012B2BD836
:10823000012F07D14FF08043D3F81C3403F0030320
:10824000012B21D006F05AFC0546F8B9284B1B78C3
:10825000E3B14FF080430222C3F808230646DFF85B
:1082600094804FF08044D4F81824D4F81834D20302
:1082700015D503F00303012B01D0012F0FD155B306
:1082800086F31188BFF36F8FBDE8F081EFF311869D
:10829000202383F31288BFF36F8F0125DFE7ADB191
:1082A000304605F028FBD4F81835002BDBD1D4F884
:1082B0000421002AD7D0C4F80431D4F804310123B2
:1082C000C4F81835C8F88031A360CCE7002121201C
:1082D00003F0E6FFE7E74FF080430222C3F80423F0
:1082E000D2E700BF901F0020801F0020B01F002099
:1082F0001F29002000E100E008B5074806F06FFAEA
:1083000038B10648FEF7FEF90448FCF7E7F800200C
:1083100008BD6FF01200FBE7C4F10F0021830F00CE
:108320000A2838B5074D044604D1AB680D215B68B7
:1083300028469847AB6803485B68E1B298472046F7
:1083400038BD00BFC4F10F0000F1744000F5A60075
:108350000A289ABF024B33F910006FF00F007047E4
:108360002CF70F00024B0B6001231360704700BF16
:10837000B8F50F000048704738F50F000268154B3C
:10838000FF2A08BF4FF0FF32C3F824254268FF2AB6
:1083900008BF4FF0FF32C3F828258268FF2A08BFC4
:1083A0004FF0FF32C3F83025C268FF2A08BF4FF0F4
:1083B000FF32C3F834250269FF2A08BF4FF0FF32AD
:1083C000C3F838254269FF2A08BF4FF0FF32C3F8CF
:1083D0003C25704700900240054B994206D14FF072
:1083E000FF324FF0FF33183003F084BA704700BFFC
:1083F0000000AD0B2DE9F04743685D6B90B0074678
:108400000AAA0021284605F030FD041E6FDB0A9BF6
:108410002A681979186800F0EDFC041E67DB002259
:1084200001212920FDF75CFFD7F804803A695749FC
:10843000404602F033FCFFF787FF041E52DB544D29
:108440000FCD0AAC0FC495E8030000260DF1040916
:1084500084E803000196AB23C9E901668DF8043076
:108460004C4BD3F82425D2B20492D3F82825D2B2AB
:108470000592D3F83025D2B20692D3F83425D2B281
:108480000792D3F83825D2B20892D3F83C350AA81F
:10849000DBB20993FFF772FF012002F075FC04AD17
:1084A00001462846FFF76AFF3B4B994223D13146EC
:1084B000484605F047FB041E14DB082006F08AF945
:1084C0004FF0030A9F2331460AA8CDE90A66CDF88A
:1084D0001090CDF814A08DF828300C9505F032FBE3
:1084E000041E0BDA02F06EFC08B102F059FC2046C3
:1084F00010B0BDE8F0876FF00404F3E75246494638
:1085000008F1300006F04BFD044600283AD17A68A5
:10851000537F023B012B33D9167F023E022E8CBFC4
:1085200000260126022005F053FB002826DBC3B2FB
:10853000C0F340008642D5D083F00203002601201C
:10854000ADF800608DF8013005F042FB041EC9DB78
:10855000022301210AA88DF800400A96CDF810D018
:1085600005930C968DF828100B9505F0EBFA044650
:108570000028B7D10020002105F048FB0446B1E7F0
:108580000126CFE76FF01204ACE700BF39DB0F0024
:10859000B0F30F00009002400000AD0B2DE9F04752
:1085A000C1F30B03D0F804C007460E461546002A57
:1085B00066D0C2F30B0252EA030461D100295FDBEB
:1085C000DCF82C204B1993425AD805F04BFB20467F
:1085D000D7F8048005F0E7FA044600284AD1DFF80E
:1085E000A890D8F82C30AB421CD105F0DAFFAA468F
:1085F000044638692146FFF7EFFE4C4527D14FF47A
:10860000A470002105F002FB041E5644A5EB0A05E8
:108610002DDB002DE5D1012005F0C5FA002C08BFA7
:10862000044627E0B5F5803F09D3B3B2A3B931467C
:10863000012002F0D1FB4FF4803A0446D9E7B5F5AA
:10864000805F09D211493869104CFFF7C5FE2046FA
:10865000FFF77AFE0446DEE7C6F30B000028F1D1EF
:10866000314602F0B9FB4FF4805A0446C1E70120BD
:1086700005F099FA384605F0DAFA2046BDE8F087A9
:108680006FF01504F9E700BF0000AD0B0400AD0B5F
:108690002DE9F3470F46054641681E469046002ADD
:1086A00079D0002B77D0042B01D9B30773D117F001
:1086B000030470D1002F6EDBCA6ABB1993426AD8DB
:1086C000284605F0CFFA204605F06DFA044648B179
:1086D000012005F068FA284605F0A9FA204602B004
:1086E000BDE8F087032E1ED804213A460DEB0100A9
:1086F00005F054FF044601462869FFF76DFE274B3D
:108700009C4235D13246414601A806F0BBFC04210B
:108710003A460DEB010005F03EFF0446014628698C
:10872000FFF75AFE24E008F06043B3F1005F02D186
:1087300018F0030F2BD0DFF864A0042EB14628BF39
:108740004FF004094A46414601A806F09BFC3A4610
:10875000494601A805F01FFF044601462869FFF7B6
:108760003BFE544504D1B6EB0906C8444F44E4D15E
:108770002046FFF7E9FD0446012005F014FA0646FD
:10878000284605F054FA002C08BF3446A6E73A46BE
:1087900031464046BFE76FF015049FE70000AD0B80
:1087A0002DE9F04F824685B088461C461746002AC0
:1087B00000F08F80002B00F088800029C0F28980B3
:1087C0004268D26ACB18934200F28380C8F1000558
:1087D00005F0030505F046FAA54228BF25467B4271
:1087E00003F0030307F0030658BF5E42764206F02B
:1087F0000306A64228BF2646631BA41B24F00304DD
:1088000023F00309A145C8BFA14603F0030BC8BF6D
:10881000A3EB040BB9F1000F18D0BB1908EB05024C
:1088200049461846019305F0B9FE04460146DAF8B8
:108830001000FFF7D1FD284A94423DD1B54205D042
:10884000019B4A461946781906F02AFCC5B1C5F1C4
:108850000406A8EB0602042102A805F09FFE0446C8
:108860000146DAF81000FFF7B7FD1B4B9C4223D1FD
:1088700006F108032A460DEB0301384606F002FC18
:10888000BBF1000F17D0082108EB05024A440DEB9D
:10889000010005F083FE04460146DAF81000FFF7F8
:1088A0009BFD0D4B9C4207D109EB05005A4602A9DE
:1088B000384406F0E7FB084C504605F0B8F920466E
:1088C00005B0BDE8F04FFFF73FBD184605B0BDE865
:1088D000F08F6FF01500F9E70000AD0B024B0B6055
:1088E00001231360704700BFE81F00200048704755
:1088F000D4F50F0010B5012211460648064C06F0CB
:1089000076F805F023FE206005F01CFE6060002074
:1089100010BD00BFF01F0020E81F00204FF0804274
:10892000D2F81015D2F8103501F01E0123F01F0304
:108930000B4343F00103C2F81035024B00221A70BA
:10894000704700BFFA2800204FF08053D3F8303131
:10895000082B20D14FF08042D2F81015CB071AD542
:10896000D2F8103501F01E0123F01F030B43C2F8AB
:108970001035D2F808315BB1D2F8103523F01F035F
:108980000B4343F00103C2F810356FF08B007047C2
:10899000024B01221A700020704700BFFA28002005
:1089A0002DE9F0410D46164605F0CCFD314607464F
:1089B000284605F06BF978B3B5FBF7F307FB1353C3
:1089C00053BBB6FBF7F407FB14642CBBBE421DD3AC
:1089D0004FF0FF324FF0FF331148DFF8488002F0CC
:1089E00089FF05F0AFFD0746FFF7AEFF044680B9EB
:1089F000284601F049FE98F800300BB1FFF78EFFD2
:108A0000F61B3D44F0D1064802F050FF2046BDE879
:108A1000F0816FF08B04F6E76FF01504F6E700BF06
:108A2000F01F0020FA2800202DE9F8430E463046BA
:108A3000194617461C4605F029F988B346EA04058D
:108A400015F003052CD1BCB11748DFF860904FF04A
:108A5000FF324FF0FF3302F04DFF24F00304AC422D
:108A600006EB05080BD1124AD2F80034DB07FBD520
:108A700000240D4802F01AFF2046BDE8F883FFF7F6
:108A800063FF50B97959404601F01EFE99F8003055
:108A90000BB1FFF743FF0435E1E76FF08B04E8E724
:108AA0006FF01504E8E700BFF01F0020FA2800204F
:108AB00000E00140F0B54068057B01F01F0444EA86
:108AC0004514056987B0002D64D0B2F5001F00F190
:108AD000100506D12146284605F029FD002007B0E3
:108AE000F0BD01AE0027B2F5800F0197776039D154
:108AF000B3F1007F14BF052304238DF80430002355
:108B0000CDE904630393836823FA01F111F00101B5
:108B10001AD1B2F1A07F17D104F01F03620903F547
:108B2000E0732AD0012A3BD11F4A52F82330DB07D9
:108B30000AD40DF1030632462146284601F0FEFB19
:108B40001A4B98421CD0029603AA2146284601F0EF
:108B5000B7FA174B984220D101222146284601F04E
:108B600051FCBBE7B3F1C06F05D0B3F1007F14BF78
:108B700001230223C1E70323BFE74FF0A042D4E75C
:108B80003146284601F038FC094B9842DBD06FF0A3
:108B90000B00A4E76FF08500A1E76FF015009EE7DA
:108BA00051F82330FFDE00BF000300500400AD0B7E
:108BB0000000AD0B38B545682B69B3B110352846B8
:108BC00001F00AFC044680B90146284601F0D0FBBA
:108BD000084B98420BD108492246284601F0A8FBD1
:108BE000224605210620FDF77BFB002038BD6FF0F3
:108BF0000400FBE70000AD0BFD8B0F00420970B5D0
:108C0000034602D0012A17D070BD0D4E326951685B
:108C10000029F9D003F01F0301250C689D400029AD
:108C2000F2D08A682A4002D04B68304698472CB16F
:108C3000236821461C46F2E7024EE7E72346F8E7A1
:108C4000B0F10F009CF10F002DE9F043466840F2AF
:108C50000635D006337B87B002EA050554BFC2F360
:108C60004010032001F01F07B5F5837F144647EA43
:108C700043178DF8030044D00FD8062D18D007D81D
:108C8000B5B1022D3FD06FF0150007B0BDE8F083FD
:108C9000B5F5807FF7D101250AE040F20222954226
:108CA00033D0B5F5407F32D0B5F5007FEBD102254A
:108CB00022032ED5726801238B40C2F80835326931
:108CC00092BB07F01F037F092BD0012F79D13F4AB8
:108CD00002EB830284F48033D2F80017C3F300431D
:108CE000C4F3404444EA430421F4E16144EA8004CB
:108CF00021F0070144EA05230B43C2F800370020A6
:108D0000C3E70725D4E70425D2E70525D0E70325E7
:108D1000CEE7630341BF012372688B40C2F80C3574
:108D2000CDE74FF0A042D3E710360DF102023946ED
:108D3000304601F003FB14F4403F80460CD1394625
:108D4000304605F0F2FB224B9845D8D19DF8021031
:108D5000304601F04BFBD2E701AB4FF0000903AA0C
:108D600039463046CDE90439CDE90199CDF80C906A
:108D700001F0A6F9164B984285D114F4003315D0B2
:108D80009DF803308DF80E3084F48034C4F3004431
:108D90004B4603AA394630468DF80C508DF80D40ED
:108DA00001F048FA0A4B9842CDD06CE7CDE9043384
:108DB00003AA0DF1030339463046039301F080F90D
:108DC000F0E703F5E07352F82330FFDE00030050B4
:108DD0000000AD0B036803F01F025B09026004D0C2
:108DE000012B034818BF002070474FF0A040704788
:108DF000000300502DE9F04FDFF89491DFF894A1C3
:108E000085B01546834600EB810140F2FF185945B5
:108E100003D1002005B0BDE8F08FDBF800305E0420
:108E2000C3F3C322C3F3080400F1AC809B0C19F810
:108E30000270444508BF4FF0FF34222B00F2A5809A
:108E4000DFE803F012191F22252B22A3A3A3A33BC3
:108E500068A3A3A3A3A3A3A3A3A36B818487A3A3B2
:108E6000A38A9194979A9D00C5F80C45601C5ED129
:108E70000BF1040BCBE7C5F81445621CF8D00026B3
:108E80005FE0C5F80845F1E7C5F81045F5E7631C54
:108E9000C5F80845ECD0002604E0661CC5F80C4572
:108EA000E6D0012603A80394FFF794FF039B012259
:108EB00002FA03F3C0F80C3508E0C5F80845002FA6
:108EC000DBD1631CD4D0002632460627DBF8003005
:108ED000019303F40040002818BF002203A8009269
:108EE00018BF01260394FFF775FF039C019B009AAE
:108EF00000EB8400C3F3412CD0F800473B0243EA67
:108F00008C03134304EA0A04234343EA4603C0F8EC
:108F10000037ADE7C5F80C45D1E7C5F86045601CE2
:108F2000DBF80030A4D0C3F30043002BB9D003A872
:108F30000394FFF74FFF039B012606FA03F3C0F8E3
:108F400008353246C2E7C5F86445E8E7C5F8684524
:108F5000E5E7C5F86C45E2E7C5F82445621C87D013
:108F600000220126B2E7C5F828457FE7C5F830455D
:108F7000F4E7C5F83445F1E7C5F83845EEE7C5F83C
:108F80003C4573E76FF0150044E76FF0850041E75B
:108F90001BF80F00F0F8FCFFF7B50746002201218F
:108FA0000220FDF79DF90220FDF76AF97D683E6910
:108FB0002C680021C4F8001537602F6901AA3846D3
:108FC00004F053FF00284EDB019B3A6819791868BA
:108FD000FFF710FF002846DB6B69C4F824356A7E72
:108FE0002B7E1343AA7E1343C4F86C35AB68D907B4
:108FF00012D506F1140005F007FA1D4B984234D142
:10900000307D04F10C0204F5907105F0F3F9337D25
:109010000120984000F024FE0823C4F800352B7B83
:1090200053B9C4F81031D4F810313369C4F8343569
:109030000123C4F838352360AB68DA075CBF4FF40E
:109040008073C4F80433AB685B0744BF4FF48003FC
:10905000C4F80433F368C4F8443500200123C4F88D
:109060004805A360E36003B0F0BD6FF00400FAE7C9
:109070000000AD0B2DE9F041044607690D4605F0EF
:109080003DFD4FF02008B0B91F4B1B789BB1642603
:10909000606804F0C4FFF0B9012005F0A9F9013EB1
:1090A000F6D10021212003F0FBF8F0E781F31188CD
:1090B000BFF36F8FF5E7EFF311810E4688F3128847
:1090C000BFF36F8F606804F0AAFF80B981F3118845
:1090D000BFF36F8FEFE7EFF311810E4688F312882D
:1090E000BFF36F8F606804F09AFF0028DED0FB6842
:1090F0001D70F9680122204604F0D1FE86F3118824
:10910000BFF36F8FBDE8F0811F2900207FB50546B2
:10911000406829698A6D0B6E0ABBABB14C6D8B66DA
:1091200016461A46C96D0291CDE9004611B3002BCF
:1091300018BF134600226946039302F01DF80E4B38
:1091400098420AD06FF004032C69236404F12800CC
:1091500002F0ACFB002384F86C3004B070BD4C6DA1
:1091600013B19A4228BF1A46002C8A6614BF1646CD
:109170000026D7E70B46DDE70000AD0B2DE9F04FE9
:1091800089B00E460093436801938B880469990463
:109190000746914600F128814FF0FF324FF0FF3330
:1091A00004F1100002F0A6FB6660D7F81080D7F833
:1091B00004A098F86D301BB1D8F800309E427DD0E5
:1091C000B6F804C01CF4006F40F04D811CF0090F8C
:1091D00040F04681CCF34513082B40F041813568BF
:1091E000B64B9D4240F23C810AF1080BBBE80F00F0
:1091F0000DF10C0EAEE80F00DBF80030CEF80030B9
:10920000AF4B9D4240F2F980AE4B9D4240F2F88058
:10921000AD4B9D4240F2F780AC4B9D4240F2F68050
:10922000AB4B9D4240F2F580AA4B9D422CBF4FF0C4
:1092300000454FF080451CF0020F05950CF004032B
:1092400000F0EA80002B14BF032302238DF81830AE
:10925000CCF300138DF81930DAF80030D3F8083564
:109260001CF0020F4FEA5312CCF3400103F01F032E
:1092700040F0D980002A00F0D380012A40F0168106
:109280009549012202FA03F3C1F80C3598F86D30C4
:109290002BB1504601F038FF002388F86D3043466B
:1092A0008E4A03A9504601F0FBFE8D4B984240F0D8
:1092B000C780012388F86D30C8F80060012384F866
:1092C0006C30019B596A4A1C03D003F1280005F059
:1092D00056F8B9F1000F40F0C980C4F8449000235B
:1092E000A36404F1580204F1480104F1440004F0BD
:1092F00044FF009B6065002B40F0C180E3640023C5
:10930000236504F1600204F1500104F14C0004F003
:1093100034FFE06520680023236448B183683BB1D3
:109320000121083004F03CFF2368186905F052FA67
:109330003846FFF7EBFE0022A06C1346834240F054
:10934000A7800023256D1946A94240F0A8809342CA
:10935000264638BF13464FF4FA5202FB03F556F87F
:10936000283B4FF000081B68B5FBF3F54FF4004CA9
:10937000C835414640F2E7304FF47A720023E5FBEE
:109380000C01FAF7BDFE02460B46304602F0B2FA77
:1093900018B9256C15F1740F13D10198C4F86880C1
:1093A00001F0B2FE84F86D803F696FF073053D6493
:1093B00007F1280002F07AFA87F86C80304602F054
:1093C000BFFA2368002B3DD09A68002A3AD09988CA
:1093D00011F4805636D1186905F0FCF92068314641
:1093E000083004F0DDFE2DE0A369002B7FF4D4AE3D
:1093F00063689E427FF4D0AED7E64FF000751AE75F
:109400004FF0806517E74FF0006514E74FF0805587
:1094100011E74FF000550EE7003B18BF012315E799
:109420004FF0A0412DE742B1012A42D12A49012241
:1094300002FA03F3C1F8083528E74FF0A041F6E738
:109440006FF0040523689B8813F4005304D1636014
:1094500004F1100002F02AFA284609B0BDE8F08FA6
:109460006FF01505EEE76FF08505EBE7D9F80030F2
:109470006364002B3FF433AFD9F8043030E7009B2E
:109480001B68E364002B3FF43AAF009B5B6837E74F
:10949000616C01EBC301013349680A444EE7E06C9B
:1094A00000EBC1000131406803444DE7C1F80C15E1
:1094B000FFDE0023C3F80835FAE700BF47E80100E4
:1094C0008FD003001FA107003F420F007F841E00C2
:1094D000FF083D0000127A0000030050E3E20F0095
:1094E0000000AD0B00F01F0240090DD001280ED185
:1094F0000A4B03EB82030A4AD3F80007024042EA10
:109500008102C3F8002770474FF0A043F1E702F54E
:10951000E072002353F82230FFDE00BF000300504A
:10952000F0F8FCFFF0B587B001238DF8023002237C
:109530008DF804306B4403930F4601AB0DF103012A
:109540000024049305460291059400F055FF0C4B4E
:10955000984206460FD103AA3946284600F0B0FDCE
:10956000B0420BD09DF80310284600F03FFF6FF08B
:10957000040007B0F0BD6FF01200FAE72046F8E7EC
:109580000000AD0B70B5012383400E4ABFF35B8F23
:10959000DC4352E8001F01EA040542E80056002EB1
:1095A000F7D1BFF35B8F4FF4803282400648C0F89A
:1095B0000823BFF35F8FBFF36F8F0B4214BF0120EF
:1095C000002070BD242000200010014070B40E491E
:1095D000D1E90034D01AC31844F1000422F07F46C8
:1095E000C1E90034A6F50013B3F5400F09D2074BCB
:1095F0001B681A0A1B069C19054B42F10005C3E9BA
:10960000004570BC03F000B8E808002028200020C6
:10961000F008002011B3BFF35B8F0123104A834091
:1096200052E800CF4CEA030C42E800C10029F7D110
:10963000BFF35B8F0B4A4FF480338340C2F804338F
:10964000094BBFF35B8F1B68BFF35B8FC340DB0726
:1096500042BF064B4FF40032C3F80021704700BFF1
:1096600024200020001001402020002000E100E024
:109670000D4B1868010A0006BFF35F8F0B4BD3F840
:109680000435181841F10001B3F5801F0AD2084BC8
:10969000D3E90023904271EB030303D210F18070F1
:1096A00041F10001704700BF282000200010014058
:1096B000F00800202DE9F04F85B016461F469DF8B2
:1096C00040A00446FFF75EFF0190FFF7D1FFB042D4
:1096D00071EB070354D23E4B301A67EB01019842FD
:1096E00071F100014FD23B4B03EB0413D3E902238A
:1096F0009F4208BF96425ED037494FF4803804F14C
:10970000500508FA04F8AD00C1F848832046ADB210
:1097100004F05DFE26F07F4B05F1804504F5A8734B
:1097200005F58835DC464FF003090293029A2CF0C8
:109730007F4341F82230C1F84483D1F80435274AE9
:109740006FF00200C01A604420F07F40904232D98E
:10975000286868B1D1F804350393A3EB0B0020F01F
:109760007F40B0F5000F26D9204604F030FE039B61
:10977000BAF1000F07D109EB030C09F10109D5E794
:10978000BAF1000F09D06FF0150520460199FFF7D7
:1097900041FF284605B0BDE8F08F0123104ABFF312
:1097A0005B8FA34052E8000F184342E800010029F4
:1097B000F8D1BFF35B8F07490E98230101EB041228
:1097C000C8500F9B5360C2E902670025DDE700BF68
:1097D00001008000D808002000100140FDFF7F003C
:1097E000202000207FB51C4C1C4BC4F80833C4F863
:1097F00048331B4B00254FF0FF304FF0FF31C4F8CA
:109800000855C3E902014FF48033C4F80433154B03
:1098100002264FF400320121C4F804631120C3F87A
:1098200080212A46FCF75CFD1120FCF729FD0E4A39
:109830000123A360236013600C4B0D4A0093CDE914
:10984000015500232846FFF735FF3046FEF7D6FCCA
:10985000284604B070BD00BF0010014003000F0097
:10986000D808002000E100E024200020CD950F0062
:10987000FFFF7F002DE9F7432F4CD4F804339907FD
:109880000BD5D4F8043143B12C4A0023C4F8043179
:10989000D4F80431136801331360D4F80433DA03C5
:1098A00029D5BFF35B8F264B53E8002F22F001012F
:1098B00043E800100028F7D1BFF35B8FD30702D431
:1098C000D4F84031BBB10025C4F84051D4F8403140
:1098D000FFF7CEFEEFF31182202383F31288BFF34C
:1098E0006F8F184BD3E90267B042B94106D282F3B9
:1098F0001188BFF36F8F03B0BDE8F0834FF0FF38DE
:109900004FF0FF39C3E90289D3E900101D604FF41D
:109910008033C4F84833C4F84051D4F8403182F35E
:109920001188BFF36F8F0029E5D0009032463B4687
:1099300028468847DFE700BF0010014028200020AC
:1099400020200020D808002030B5431C124C85B0E0
:1099500005D08442A8BF0446012CB8BF0124FFF7FC
:1099600087FE0E4B0C4DD3E90013401AB0F5000FE3
:1099700010D22218AA4228BF2A4652184FF00000DF
:1099800007490091CDE9010043F10003FFF792FE82
:1099900005B030BD2A46F0E7FFFF7F00E808002051
:1099A000CD950F0008B5FFF763FE024B1B68C01A88
:1099B00008BD00BFE808002010B5084C0123636013
:1099C0001120FCF76BFC064BC4F80833C4F848338D
:1099D000044B4FF40032C3F8802110BD0010014049
:1099E00003000F0000E100E04FF08053D3F8302176
:1099F000082A06D1D3F83431052B02D8024AD05CAC
:109A000070470020704700BF44F80F00024AD2F8A8
:109A10000034002BFBD0704700E0014010B54FF040
:109A20008053D3F83021082A4ED14FF080420021D4
:109A3000C2F80C11C2F81011C2F8381502F54042F4
:109A4000D3F80414C2F82015D3F80814C2F824156A
:109A5000D3F80C14C2F82815D3F81014C2F82C153A
:109A6000D3F81414C2F83015D3F81814C2F834150A
:109A7000D3F81C14C2F84015D3F82014C2F84415CA
:109A8000D3F82414C2F84815D3F82814C2F84C159A
:109A9000D3F82C14C2F85015D3F83014C2F854156A
:109AA000D3F83414C2F86015D3F83814C2F864152A
:109AB000D3F83C14C2F86815D3F84014C2F86C15FA
:109AC000D3F84434C2F87035FFF78EFF18B13A4B23
:109AD0003A4AC3F88C26FFF787FF18B1384BFB22B0
